{
  "address": "0x91d5D0aF16DB5D2f25127B5EB3Ae2dC340D18817",
  "abi": [
    {
      "inputs": [],
      "stateMutability": "nonpayable",
      "type": "constructor"
    },
    {
      "anonymous": false,
      "inputs": [
        {
          "indexed": true,
          "internalType": "address",
          "name": "owner",
          "type": "address"
        },
        {
          "indexed": true,
          "internalType": "address",
          "name": "approved",
          "type": "address"
        },
        {
          "indexed": true,
          "internalType": "uint256",
          "name": "tokenId",
          "type": "uint256"
        }
      ],
      "name": "Approval",
      "type": "event"
    },
    {
      "anonymous": false,
      "inputs": [
        {
          "indexed": true,
          "internalType": "address",
          "name": "owner",
          "type": "address"
        },
        {
          "indexed": true,
          "internalType": "address",
          "name": "operator",
          "type": "address"
        },
        {
          "indexed": false,
          "internalType": "bool",
          "name": "approved",
          "type": "bool"
        }
      ],
      "name": "ApprovalForAll",
      "type": "event"
    },
    {
      "anonymous": false,
      "inputs": [
        {
          "indexed": true,
          "internalType": "uint256",
          "name": "itemId",
          "type": "uint256"
        },
        {
          "indexed": true,
          "internalType": "address",
          "name": "winner",
          "type": "address"
        },
        {
          "indexed": false,
          "internalType": "uint256",
          "name": "amount",
          "type": "uint256"
        }
      ],
      "name": "AuctionEnded",
      "type": "event"
    },
    {
      "anonymous": false,
      "inputs": [
        {
          "indexed": false,
          "internalType": "uint256",
          "name": "_fromTokenId",
          "type": "uint256"
        },
        {
          "indexed": false,
          "internalType": "uint256",
          "name": "_toTokenId",
          "type": "uint256"
        }
      ],
      "name": "BatchMetadataUpdate",
      "type": "event"
    },
    {
      "anonymous": false,
      "inputs": [
        {
          "indexed": false,
          "internalType": "uint256",
          "name": "_tokenId",
          "type": "uint256"
        }
      ],
      "name": "MetadataUpdate",
      "type": "event"
    },
    {
      "anonymous": false,
      "inputs": [
        {
          "indexed": true,
          "internalType": "uint256",
          "name": "itemId",
          "type": "uint256"
        },
        {
          "indexed": true,
          "internalType": "address",
          "name": "owner",
          "type": "address"
        },
        {
          "indexed": false,
          "internalType": "string",
          "name": "name",
          "type": "string"
        },
        {
          "indexed": false,
          "internalType": "uint256",
          "name": "startPrice",
          "type": "uint256"
        },
        {
          "indexed": false,
          "internalType": "uint256",
          "name": "endTime",
          "type": "uint256"
        }
      ],
      "name": "NewAuction",
      "type": "event"
    },
    {
      "anonymous": false,
      "inputs": [
        {
          "indexed": true,
          "internalType": "uint256",
          "name": "itemId",
          "type": "uint256"
        },
        {
          "indexed": true,
          "internalType": "address",
          "name": "bidder",
          "type": "address"
        },
        {
          "indexed": false,
          "internalType": "uint256",
          "name": "amount",
          "type": "uint256"
        }
      ],
      "name": "NewBid",
      "type": "event"
    },
    {
      "anonymous": false,
      "inputs": [
        {
          "indexed": true,
          "internalType": "uint256",
          "name": "tokenId",
          "type": "uint256"
        }
      ],
      "name": "NewToken",
      "type": "event"
    },
    {
      "anonymous": false,
      "inputs": [
        {
          "indexed": true,
          "internalType": "address",
          "name": "buyer",
          "type": "address"
        },
        {
          "indexed": true,
          "internalType": "uint256",
          "name": "tokenId",
          "type": "uint256"
        },
        {
          "indexed": false,
          "internalType": "uint256",
          "name": "amount",
          "type": "uint256"
        }
      ],
      "name": "TokenPurchased",
      "type": "event"
    },
    {
      "anonymous": false,
      "inputs": [
        {
          "indexed": true,
          "internalType": "address",
          "name": "from",
          "type": "address"
        },
        {
          "indexed": true,
          "internalType": "address",
          "name": "to",
          "type": "address"
        },
        {
          "indexed": true,
          "internalType": "uint256",
          "name": "tokenId",
          "type": "uint256"
        }
      ],
      "name": "Transfer",
      "type": "event"
    },
    {
      "anonymous": false,
      "inputs": [
        {
          "indexed": false,
          "internalType": "address",
          "name": "to",
          "type": "address"
        },
        {
          "indexed": false,
          "internalType": "uint256",
          "name": "amount",
          "type": "uint256"
        }
      ],
      "name": "Withdraw",
      "type": "event"
    },
    {
      "inputs": [],
      "name": "OWNER_FEE_PERC",
      "outputs": [
        {
          "internalType": "uint256",
          "name": "",
          "type": "uint256"
        }
      ],
      "stateMutability": "view",
      "type": "function"
    },
    {
      "inputs": [
        {
          "internalType": "address",
          "name": "to",
          "type": "address"
        },
        {
          "internalType": "uint256",
          "name": "tokenId",
          "type": "uint256"
        }
      ],
      "name": "approve",
      "outputs": [],
      "stateMutability": "nonpayable",
      "type": "function"
    },
    {
      "inputs": [
        {
          "internalType": "uint256",
          "name": "",
          "type": "uint256"
        }
      ],
      "name": "auctions",
      "outputs": [
        {
          "internalType": "uint256",
          "name": "itemId",
          "type": "uint256"
        },
        {
          "internalType": "string",
          "name": "name",
          "type": "string"
        },
        {
          "internalType": "string",
          "name": "metadata",
          "type": "string"
        },
        {
          "internalType": "address",
          "name": "owner",
          "type": "address"
        },
        {
          "internalType": "uint256",
          "name": "startPrice",
          "type": "uint256"
        },
        {
          "internalType": "uint256",
          "name": "highestBid",
          "type": "uint256"
        },
        {
          "internalType": "address",
          "name": "highestBidder",
          "type": "address"
        },
        {
          "internalType": "uint256",
          "name": "endTime",
          "type": "uint256"
        },
        {
          "internalType": "bool",
          "name": "ended",
          "type": "bool"
        }
      ],
      "stateMutability": "view",
      "type": "function"
    },
    {
      "inputs": [
        {
          "internalType": "address",
          "name": "owner",
          "type": "address"
        }
      ],
      "name": "balanceOf",
      "outputs": [
        {
          "internalType": "uint256",
          "name": "",
          "type": "uint256"
        }
      ],
      "stateMutability": "view",
      "type": "function"
    },
    {
      "inputs": [
        {
          "internalType": "uint256",
          "name": "itemId",
          "type": "uint256"
        }
      ],
      "name": "bid",
      "outputs": [],
      "stateMutability": "payable",
      "type": "function"
    },
    {
      "inputs": [
        {
          "internalType": "string",
          "name": "metadata",
          "type": "string"
        },
        {
          "internalType": "string",
          "name": "name",
          "type": "string"
        },
        {
          "internalType": "uint256",
          "name": "startPrice",
          "type": "uint256"
        },
        {
          "internalType": "uint256",
          "name": "duration",
          "type": "uint256"
        }
      ],
      "name": "createAuction",
      "outputs": [],
      "stateMutability": "nonpayable",
      "type": "function"
    },
    {
      "inputs": [
        {
          "internalType": "string",
          "name": "metadata",
          "type": "string"
        },
        {
          "internalType": "string",
          "name": "name",
          "type": "string"
        },
        {
          "internalType": "uint256",
          "name": "initValue",
          "type": "uint256"
        }
      ],
      "name": "createToken",
      "outputs": [],
      "stateMutability": "nonpayable",
      "type": "function"
    },
    {
      "inputs": [
        {
          "internalType": "uint256",
          "name": "itemId",
          "type": "uint256"
        }
      ],
      "name": "endAuction",
      "outputs": [],
      "stateMutability": "nonpayable",
      "type": "function"
    },
    {
      "inputs": [],
      "name": "getAllAuctions",
      "outputs": [
        {
          "components": [
            {
              "internalType": "uint256",
              "name": "itemId",
              "type": "uint256"
            },
            {
              "internalType": "string",
              "name": "name",
              "type": "string"
            },
            {
              "internalType": "string",
              "name": "metadata",
              "type": "string"
            },
            {
              "internalType": "address",
              "name": "owner",
              "type": "address"
            },
            {
              "internalType": "uint256",
              "name": "startPrice",
              "type": "uint256"
            },
            {
              "internalType": "uint256",
              "name": "highestBid",
              "type": "uint256"
            },
            {
              "internalType": "address",
              "name": "highestBidder",
              "type": "address"
            },
            {
              "internalType": "uint256",
              "name": "endTime",
              "type": "uint256"
            },
            {
              "internalType": "bool",
              "name": "ended",
              "type": "bool"
            }
          ],
          "internalType": "struct OlyCrypto.AuctionItem[]",
          "name": "",
          "type": "tuple[]"
        }
      ],
      "stateMutability": "view",
      "type": "function"
    },
    {
      "inputs": [],
      "name": "getAllTokens",
      "outputs": [
        {
          "components": [
            {
              "internalType": "uint256",
              "name": "tokenId",
              "type": "uint256"
            },
            {
              "internalType": "string",
              "name": "name",
              "type": "string"
            },
            {
              "internalType": "uint256",
              "name": "initValue",
              "type": "uint256"
            },
            {
              "internalType": "string",
              "name": "metadata",
              "type": "string"
            },
            {
              "internalType": "bool",
              "name": "available",
              "type": "bool"
            },
            {
              "internalType": "uint256",
              "name": "dateCheckIn",
              "type": "uint256"
            }
          ],
          "internalType": "struct OlyCrypto.Token[]",
          "name": "",
          "type": "tuple[]"
        }
      ],
      "stateMutability": "view",
      "type": "function"
    },
    {
      "inputs": [
        {
          "internalType": "uint256",
          "name": "tokenId",
          "type": "uint256"
        }
      ],
      "name": "getApproved",
      "outputs": [
        {
          "internalType": "address",
          "name": "",
          "type": "address"
        }
      ],
      "stateMutability": "view",
      "type": "function"
    },
    {
      "inputs": [
        {
          "internalType": "address",
          "name": "_walletAddress",
          "type": "address"
        }
      ],
      "name": "getOwnerAuction",
      "outputs": [
        {
          "components": [
            {
              "internalType": "uint256",
              "name": "itemId",
              "type": "uint256"
            },
            {
              "internalType": "string",
              "name": "name",
              "type": "string"
            },
            {
              "internalType": "string",
              "name": "metadata",
              "type": "string"
            },
            {
              "internalType": "address",
              "name": "owner",
              "type": "address"
            },
            {
              "internalType": "uint256",
              "name": "startPrice",
              "type": "uint256"
            },
            {
              "internalType": "uint256",
              "name": "highestBid",
              "type": "uint256"
            },
            {
              "internalType": "address",
              "name": "highestBidder",
              "type": "address"
            },
            {
              "internalType": "uint256",
              "name": "endTime",
              "type": "uint256"
            },
            {
              "internalType": "bool",
              "name": "ended",
              "type": "bool"
            }
          ],
          "internalType": "struct OlyCrypto.AuctionItem[]",
          "name": "",
          "type": "tuple[]"
        }
      ],
      "stateMutability": "view",
      "type": "function"
    },
    {
      "inputs": [
        {
          "internalType": "address",
          "name": "_walletAddress",
          "type": "address"
        }
      ],
      "name": "getOwnerTokens",
      "outputs": [
        {
          "components": [
            {
              "internalType": "uint256",
              "name": "tokenId",
              "type": "uint256"
            },
            {
              "internalType": "string",
              "name": "name",
              "type": "string"
            },
            {
              "internalType": "uint256",
              "name": "initValue",
              "type": "uint256"
            },
            {
              "internalType": "string",
              "name": "metadata",
              "type": "string"
            },
            {
              "internalType": "bool",
              "name": "available",
              "type": "bool"
            },
            {
              "internalType": "uint256",
              "name": "dateCheckIn",
              "type": "uint256"
            }
          ],
          "internalType": "struct OlyCrypto.Token[]",
          "name": "",
          "type": "tuple[]"
        }
      ],
      "stateMutability": "view",
      "type": "function"
    },
    {
      "inputs": [
        {
          "internalType": "address",
          "name": "owner",
          "type": "address"
        },
        {
          "internalType": "address",
          "name": "operator",
          "type": "address"
        }
      ],
      "name": "isApprovedForAll",
      "outputs": [
        {
          "internalType": "bool",
          "name": "",
          "type": "bool"
        }
      ],
      "stateMutability": "view",
      "type": "function"
    },
    {
      "inputs": [],
      "name": "name",
      "outputs": [
        {
          "internalType": "string",
          "name": "",
          "type": "string"
        }
      ],
      "stateMutability": "view",
      "type": "function"
    },
    {
      "inputs": [],
      "name": "owner",
      "outputs": [
        {
          "internalType": "address",
          "name": "",
          "type": "address"
        }
      ],
      "stateMutability": "view",
      "type": "function"
    },
    {
      "inputs": [
        {
          "internalType": "uint256",
          "name": "tokenId",
          "type": "uint256"
        }
      ],
      "name": "ownerOf",
      "outputs": [
        {
          "internalType": "address",
          "name": "",
          "type": "address"
        }
      ],
      "stateMutability": "view",
      "type": "function"
    },
    {
      "inputs": [
        {
          "internalType": "uint256",
          "name": "tokenId",
          "type": "uint256"
        }
      ],
      "name": "purchaseToken",
      "outputs": [],
      "stateMutability": "payable",
      "type": "function"
    },
    {
      "inputs": [
        {
          "internalType": "address",
          "name": "from",
          "type": "address"
        },
        {
          "internalType": "address",
          "name": "to",
          "type": "address"
        },
        {
          "internalType": "uint256",
          "name": "tokenId",
          "type": "uint256"
        }
      ],
      "name": "safeTransferFrom",
      "outputs": [],
      "stateMutability": "nonpayable",
      "type": "function"
    },
    {
      "inputs": [
        {
          "internalType": "address",
          "name": "from",
          "type": "address"
        },
        {
          "internalType": "address",
          "name": "to",
          "type": "address"
        },
        {
          "internalType": "uint256",
          "name": "tokenId",
          "type": "uint256"
        },
        {
          "internalType": "bytes",
          "name": "data",
          "type": "bytes"
        }
      ],
      "name": "safeTransferFrom",
      "outputs": [],
      "stateMutability": "nonpayable",
      "type": "function"
    },
    {
      "inputs": [
        {
          "internalType": "address",
          "name": "operator",
          "type": "address"
        },
        {
          "internalType": "bool",
          "name": "approved",
          "type": "bool"
        }
      ],
      "name": "setApprovalForAll",
      "outputs": [],
      "stateMutability": "nonpayable",
      "type": "function"
    },
    {
      "inputs": [
        {
          "internalType": "bytes4",
          "name": "interfaceId",
          "type": "bytes4"
        }
      ],
      "name": "supportsInterface",
      "outputs": [
        {
          "internalType": "bool",
          "name": "",
          "type": "bool"
        }
      ],
      "stateMutability": "view",
      "type": "function"
    },
    {
      "inputs": [],
      "name": "symbol",
      "outputs": [
        {
          "internalType": "string",
          "name": "",
          "type": "string"
        }
      ],
      "stateMutability": "view",
      "type": "function"
    },
    {
      "inputs": [
        {
          "internalType": "uint256",
          "name": "tokenId",
          "type": "uint256"
        }
      ],
      "name": "tokenURI",
      "outputs": [
        {
          "internalType": "string",
          "name": "",
          "type": "string"
        }
      ],
      "stateMutability": "view",
      "type": "function"
    },
    {
      "inputs": [
        {
          "internalType": "uint256",
          "name": "",
          "type": "uint256"
        }
      ],
      "name": "tokensCreated",
      "outputs": [
        {
          "internalType": "uint256",
          "name": "tokenId",
          "type": "uint256"
        },
        {
          "internalType": "string",
          "name": "name",
          "type": "string"
        },
        {
          "internalType": "uint256",
          "name": "initValue",
          "type": "uint256"
        },
        {
          "internalType": "string",
          "name": "metadata",
          "type": "string"
        },
        {
          "internalType": "bool",
          "name": "available",
          "type": "bool"
        },
        {
          "internalType": "uint256",
          "name": "dateCheckIn",
          "type": "uint256"
        }
      ],
      "stateMutability": "view",
      "type": "function"
    },
    {
      "inputs": [],
      "name": "totalSupply",
      "outputs": [
        {
          "internalType": "uint256",
          "name": "",
          "type": "uint256"
        }
      ],
      "stateMutability": "view",
      "type": "function"
    },
    {
      "inputs": [
        {
          "internalType": "address",
          "name": "from",
          "type": "address"
        },
        {
          "internalType": "address",
          "name": "to",
          "type": "address"
        },
        {
          "internalType": "uint256",
          "name": "tokenId",
          "type": "uint256"
        }
      ],
      "name": "transferFrom",
      "outputs": [],
      "stateMutability": "nonpayable",
      "type": "function"
    },
    {
      "inputs": [],
      "name": "withdraw",
      "outputs": [],
      "stateMutability": "nonpayable",
      "type": "function"
    }
  ],
  "transactionHash": "0x681dafa37dba629e52a51622ec52708b162d3f1b5162fbb1f0b3065fdfd9d27f",
  "args": [],
  "numDeployments": 1,
  "solcInputHash": "7526dcf08d719ab0662173497022134d",
  "bytecode": "0x60806040523480156200001157600080fd5b506040518060400160405280600e81526020016d41756374696f6e2043727970746f60901b8152506040518060400160405280600381526020016241554360e81b815250816000908162000066919062000135565b50600162000075828262000135565b5050600780546001600160a01b031916331790555062000201565b634e487b7160e01b600052604160045260246000fd5b600181811c90821680620000bb57607f821691505b602082108103620000dc57634e487b7160e01b600052602260045260246000fd5b50919050565b601f8211156200013057600081815260208120601f850160051c810160208610156200010b5750805b601f850160051c820191505b818110156200012c5782815560010162000117565b5050505b505050565b81516001600160401b0381111562000151576200015162000090565b6200016981620001628454620000a6565b84620000e2565b602080601f831160018114620001a15760008415620001885750858301515b600019600386901b1c1916600185901b1785556200012c565b600085815260208120601f198616915b82811015620001d257888601518255948401946001909101908401620001b1565b5085821015620001f15787850151600019600388901b60f8161c191681555b5050505050600190811b01905550565b61336580620002116000396000f3fe6080604052600436106101b75760003560e01c806361e2db55116100ec578063b88d4fde1161008a578063c87b56dd11610064578063c87b56dd146104ec578063cbd2bdfd1461050c578063d63d4af014610521578063e985e9c51461054157600080fd5b8063b88d4fde14610499578063b9a2de3a146104b9578063c2db2c42146104d957600080fd5b80638da5cb5b116100c65780638da5cb5b1461042f57806392e20a8e1461044f57806395d89b4114610464578063a22cb4651461047957600080fd5b806361e2db55146103cf5780636352211e146103ef57806370a082311461040f57600080fd5b80633ccfd60b1161015957806342842e0e1161013357806342842e0e14610347578063454a2ab314610367578063571a26a01461037a5780635b060530146103af57600080fd5b80633ccfd60b146102d35780633f899439146102e857806341abf5711461031557600080fd5b8063095ea7b311610195578063095ea7b31461024b57806318160ddd1461026d57806323b872dd146102915780632a5c792a146102b157600080fd5b806301ffc9a7146101bc57806306fdde03146101f1578063081812fc14610213575b600080fd5b3480156101c857600080fd5b506101dc6101d736600461299d565b610561565b60405190151581526020015b60405180910390f35b3480156101fd57600080fd5b5061020661058c565b6040516101e89190612a0a565b34801561021f57600080fd5b5061023361022e366004612a1d565b61061e565b6040516001600160a01b0390911681526020016101e8565b34801561025757600080fd5b5061026b610266366004612a4d565b610645565b005b34801561027957600080fd5b5061028360085481565b6040519081526020016101e8565b34801561029d57600080fd5b5061026b6102ac366004612a77565b61075f565b3480156102bd57600080fd5b506102c6610790565b6040516101e89190612ab3565b3480156102df57600080fd5b5061026b610aaf565b3480156102f457600080fd5b50610308610303366004612b65565b610b30565b6040516101e89190612b80565b34801561032157600080fd5b50610335610330366004612a1d565b610ddf565b6040516101e896959493929190612c5c565b34801561035357600080fd5b5061026b610362366004612a77565b610f28565b61026b610375366004612a1d565b610f43565b34801561038657600080fd5b5061039a610395366004612a1d565b611094565b6040516101e899989796959493929190612ca3565b3480156103bb57600080fd5b5061026b6103ca366004612dc4565b6111fb565b3480156103db57600080fd5b5061026b6103ea366004612e31565b611307565b3480156103fb57600080fd5b5061023361040a366004612a1d565b6114a0565b34801561041b57600080fd5b5061028361042a366004612b65565b611500565b34801561043b57600080fd5b50600754610233906001600160a01b031681565b34801561045b57600080fd5b50610283600581565b34801561047057600080fd5b50610206611586565b34801561048557600080fd5b5061026b610494366004612ea5565b611595565b3480156104a557600080fd5b5061026b6104b4366004612ee1565b6115a4565b3480156104c557600080fd5b5061026b6104d4366004612a1d565b6115dc565b61026b6104e7366004612a1d565b611797565b3480156104f857600080fd5b50610206610507366004612a1d565b6118be565b34801561051857600080fd5b506103086119ce565b34801561052d57600080fd5b506102c661053c366004612b65565b611cdd565b34801561054d57600080fd5b506101dc61055c366004612f5d565b611f8a565b60006001600160e01b03198216632483248360e11b1480610586575061058682611fb8565b92915050565b60606000805461059b90612f90565b80601f01602080910402602001604051908101604052809291908181526020018280546105c790612f90565b80156106145780601f106105e957610100808354040283529160200191610614565b820191906000526020600020905b8154815290600101906020018083116105f757829003601f168201915b5050505050905090565b600061062982612008565b506000908152600460205260409020546001600160a01b031690565b6000610650826114a0565b9050806001600160a01b0316836001600160a01b0316036106c25760405162461bcd60e51b815260206004820152602160248201527f4552433732313a20617070726f76616c20746f2063757272656e74206f776e656044820152603960f91b60648201526084015b60405180910390fd5b336001600160a01b03821614806106de57506106de8133611f8a565b6107505760405162461bcd60e51b815260206004820152603d60248201527f4552433732313a20617070726f76652063616c6c6572206973206e6f7420746f60448201527f6b656e206f776e6572206f7220617070726f76656420666f7220616c6c00000060648201526084016106b9565b61075a838361206a565b505050565b61076933826120d8565b6107855760405162461bcd60e51b81526004016106b990612fca565b61075a838383612136565b6060600060095467ffffffffffffffff8111156107af576107af612d18565b60405190808252806020026020018201604052801561081b57816020015b6108086040518060c0016040528060008152602001606081526020016000815260200160608152602001600015158152602001600081525090565b8152602001906001900390816107cd5790505b5060095490915015610aaa576000805b600160085461083a919061302d565b8161ffff1611610aa75761ffff81166000908152600c60205260408120600101805461086590612f90565b80601f016020809104026020016040519081016040528092919081815260200182805461089190612f90565b80156108de5780601f106108b3576101008083540402835291602001916108de565b820191906000526020600020905b8154815290600101906020018083116108c157829003601f168201915b505050505090508051600014610a9457600c60008361ffff1681526020019081526020016000206040518060c00160405290816000820154815260200160018201805461092a90612f90565b80601f016020809104026020016040519081016040528092919081815260200182805461095690612f90565b80156109a35780601f10610978576101008083540402835291602001916109a3565b820191906000526020600020905b81548152906001019060200180831161098657829003601f168201915b50505050508152602001600282015481526020016003820180546109c690612f90565b80601f01602080910402602001604051908101604052809291908181526020018280546109f290612f90565b8015610a3f5780601f10610a1457610100808354040283529160200191610a3f565b820191906000526020600020905b815481529060010190602001808311610a2257829003601f168201915b5050509183525050600482015460ff16151560208201526005909101546040909101528451859061ffff8616908110610a7a57610a7a613040565b60200260200101819052508280610a9090613056565b9350505b5080610a9f81613056565b91505061082b565b50505b919050565b6007546040516001600160a01b03909116904780156108fc02916000818181858888f19350505050158015610ae8573d6000803e3d6000fd5b50600754604080516001600160a01b0390921682524760208301527f884edad9ce6fa2440d8a54cc123490eb96d2768479d49ff9c7366125a9424364910160405180910390a1565b60606000610b3d83611500565b905060008167ffffffffffffffff811115610b5a57610b5a612d18565b604051908082528060200260200182016040528015610b9357816020015b610b80612927565b815260200190600190039081610b785790505b5090508115610dd8576000805b6001600854610baf919061302d565b8161ffff1611610dd55761ffff81166000908152600b6020526040812054610bd6906114a0565b9050866001600160a01b0316816001600160a01b031603610dc257600b60008361ffff1681526020019081526020016000206040518061012001604052908160008201548152602001600182018054610c2e90612f90565b80601f0160208091040260200160405190810160405280929190818152602001828054610c5a90612f90565b8015610ca75780601f10610c7c57610100808354040283529160200191610ca7565b820191906000526020600020905b815481529060010190602001808311610c8a57829003601f168201915b50505050508152602001600282018054610cc090612f90565b80601f0160208091040260200160405190810160405280929190818152602001828054610cec90612f90565b8015610d395780601f10610d0e57610100808354040283529160200191610d39565b820191906000526020600020905b815481529060010190602001808311610d1c57829003601f168201915b505050918352505060038201546001600160a01b03908116602083015260048301546040830152600583015460608301526006830154166080820152600782015460a082015260089091015460ff16151560c0909101528451859061ffff8616908110610da857610da8613040565b60200260200101819052508280610dbe90613056565b9350505b5080610dcd81613056565b915050610ba0565b50505b9392505050565b600c6020526000908152604090208054600182018054919291610e0190612f90565b80601f0160208091040260200160405190810160405280929190818152602001828054610e2d90612f90565b8015610e7a5780601f10610e4f57610100808354040283529160200191610e7a565b820191906000526020600020905b815481529060010190602001808311610e5d57829003601f168201915b505050505090806002015490806003018054610e9590612f90565b80601f0160208091040260200160405190810160405280929190818152602001828054610ec190612f90565b8015610f0e5780601f10610ee357610100808354040283529160200191610f0e565b820191906000526020600020905b815481529060010190602001808311610ef157829003601f168201915b505050506004830154600590930154919260ff1691905086565b61075a838383604051806020016040528060008152506115a4565b6000818152600b60205260409020600501543411610fb75760405162461bcd60e51b815260206004820152602b60248201527f426964206d75737420626520686967686572207468616e2063757272656e742060448201526a1a1a59da195cdd08189a5960aa1b60648201526084016106b9565b6000818152600b60205260409020600601546001600160a01b031615611027576000818152600b6020526040808220600681015460059091015491516001600160a01b039091169282156108fc02929190818181858888f19350505050158015611025573d6000803e3d6000fd5b505b6000818152600b6020526040908190203460058201819055600690910180546001600160a01b03191633908117909155915183917f558a0d5d5468d74b0db24c74eb348b42271c2ebb4c9e953ced38aaed95fa43619161108991815260200190565b60405180910390a350565b600b60205260009081526040902080546001820180549192916110b690612f90565b80601f01602080910402602001604051908101604052809291908181526020018280546110e290612f90565b801561112f5780601f106111045761010080835404028352916020019161112f565b820191906000526020600020905b81548152906001019060200180831161111257829003601f168201915b50505050509080600201805461114490612f90565b80601f016020809104026020016040519081016040528092919081815260200182805461117090612f90565b80156111bd5780601f10611192576101008083540402835291602001916111bd565b820191906000526020600020905b8154815290600101906020018083116111a057829003601f168201915b505050506003830154600484015460058501546006860154600787015460089097015495966001600160a01b03948516969395509193169160ff1689565b6008546040805160c081018252828152602080820186815282840186905260608301889052600160808401819052600060a08501819052868152600c90935293909120825181559051879382019061125390826130c5565b50604082015160028201556060820151600382019061127290826130c5565b50608082015160048201805460ff191691151591909117905560a0909101516005909101556112a1338361229a565b6112ab8282612425565b600880549060006112bb83613185565b9091555050600980549060006112d083613185565b909155505060405182907f0b0e1efe43e1d56f854d6465fc899ed56ba06463eebf7e2ba402df15e6ee7e7e90600090a25050505050565b6008546040805161012081018252828152602081018690529081018690523360608201526080810184905260a08101849052600060c0820152859060e0810161135042866124f0565b815260006020918201819052848152600b8252604090208251815590820151600182019061137e90826130c5565b506040820151600282019061139390826130c5565b5060608201516003820180546001600160a01b039283166001600160a01b0319918216179091556080840151600484015560a0840151600584015560c084015160068401805491909316911617905560e08201516007820155610100909101516008909101805491151560ff19909216919091179055611413338361229a565b61141d8282612425565b6008805490600061142d83613185565b9091555050600a805490600061144283613185565b90915550506000828152600b602052604090819020600701549051339184917f180b43a9f50a1f2dc5fa0d10afda303d033bc082b2dabad3465ad821abf5fab491611490918a918a9161319e565b60405180910390a3505050505050565b6000818152600260205260408120546001600160a01b0316806105865760405162461bcd60e51b8152602060048201526018602482015277115490cdcc8c4e881a5b9d985b1a59081d1bdad95b88125160421b60448201526064016106b9565b60006001600160a01b03821661156a5760405162461bcd60e51b815260206004820152602960248201527f4552433732313a2061646472657373207a65726f206973206e6f7420612076616044820152683634b21037bbb732b960b91b60648201526084016106b9565b506001600160a01b031660009081526003602052604090205490565b60606001805461059b90612f90565b6115a033838361254f565b5050565b6115ae33836120d8565b6115ca5760405162461bcd60e51b81526004016106b990612fca565b6115d684848484612615565b50505050565b6000818152600b602052604090206008015460ff161561163e5760405162461bcd60e51b815260206004820152601960248201527f41756374696f6e2068617320616c726561647920656e6465640000000000000060448201526064016106b9565b6000818152600b6020526040812060088101805460ff1916600117905560059081015460649161166d916131c3565b61167791906131da565b6000838152600b60205260408120600501549192509061169890839061302d565b6000848152600b60205260409020600601549091506001600160a01b031615611762576000838152600b60205260408082206003015490516001600160a01b039091169183156108fc02918491818181858888f19350505050158015611702573d6000803e3d6000fd5b506000838152600b6020908152604091829020600681015460059091015492519283526001600160a01b03169185917fd2aa34a4fdbbc6dff6a3e56f46e0f3ae2a31d7785ff3487aa5c95c642acea50191015b60405180910390a3505050565b60405160008082529084907fd2aa34a4fdbbc6dff6a3e56f46e0f3ae2a31d7785ff3487aa5c95c642acea50190602001611755565b6000818152600c602052604090206004015460ff166117ee5760405162461bcd60e51b8152602060048201526013602482015272546f6b656e206e6f7420617661696c61626c6560681b60448201526064016106b9565b600060646117fd6005346131c3565b61180791906131da565b90506000611815823461302d565b9050611820836114a0565b6001600160a01b03166108fc829081150290604051600060405180830381858888f19350505050158015611858573d6000803e3d6000fd5b5061186c611865846114a0565b3385612136565b6000838152600c60209081526040918290204260058201553460029091018190559151918252849133917f3ceffd410054fdaed44f598ff5c1fb450658778e2241892da4aa646979dee6179101611755565b60606118c982612008565b600082815260066020526040812080546118e290612f90565b80601f016020809104026020016040519081016040528092919081815260200182805461190e90612f90565b801561195b5780601f106119305761010080835404028352916020019161195b565b820191906000526020600020905b81548152906001019060200180831161193e57829003601f168201915b50505050509050600061197960408051602081019091526000815290565b9050805160000361198b575092915050565b8151156119bd5780826040516020016119a59291906131fc565b60405160208183030381529060405292505050919050565b6119c684612648565b949350505050565b60606000600a5467ffffffffffffffff8111156119ed576119ed612d18565b604051908082528060200260200182016040528015611a2657816020015b611a13612927565b815260200190600190039081611a0b5790505b50600a5490915015610aaa576000805b6001600854611a45919061302d565b8161ffff1611610aa75761ffff81166000908152600b602052604081206001018054611a7090612f90565b80601f0160208091040260200160405190810160405280929190818152602001828054611a9c90612f90565b8015611ae95780601f10611abe57610100808354040283529160200191611ae9565b820191906000526020600020905b815481529060010190602001808311611acc57829003601f168201915b505050505090508051600014611cca57600b60008361ffff1681526020019081526020016000206040518061012001604052908160008201548152602001600182018054611b3690612f90565b80601f0160208091040260200160405190810160405280929190818152602001828054611b6290612f90565b8015611baf5780601f10611b8457610100808354040283529160200191611baf565b820191906000526020600020905b815481529060010190602001808311611b9257829003601f168201915b50505050508152602001600282018054611bc890612f90565b80601f0160208091040260200160405190810160405280929190818152602001828054611bf490612f90565b8015611c415780601f10611c1657610100808354040283529160200191611c41565b820191906000526020600020905b815481529060010190602001808311611c2457829003601f168201915b505050918352505060038201546001600160a01b03908116602083015260048301546040830152600583015460608301526006830154166080820152600782015460a082015260089091015460ff16151560c0909101528451859061ffff8616908110611cb057611cb0613040565b60200260200101819052508280611cc690613056565b9350505b5080611cd581613056565b915050611a36565b60606000611cea83611500565b905060008167ffffffffffffffff811115611d0757611d07612d18565b604051908082528060200260200182016040528015611d7357816020015b611d606040518060c0016040528060008152602001606081526020016000815260200160608152602001600015158152602001600081525090565b815260200190600190039081611d255790505b5090508115610dd8576000805b6001600854611d8f919061302d565b8161ffff1611610dd55761ffff81166000908152600c6020526040812054611db6906114a0565b9050866001600160a01b0316816001600160a01b031603611f7757600c60008361ffff1681526020019081526020016000206040518060c001604052908160008201548152602001600182018054611e0d90612f90565b80601f0160208091040260200160405190810160405280929190818152602001828054611e3990612f90565b8015611e865780601f10611e5b57610100808354040283529160200191611e86565b820191906000526020600020905b815481529060010190602001808311611e6957829003601f168201915b5050505050815260200160028201548152602001600382018054611ea990612f90565b80601f0160208091040260200160405190810160405280929190818152602001828054611ed590612f90565b8015611f225780601f10611ef757610100808354040283529160200191611f22565b820191906000526020600020905b815481529060010190602001808311611f0557829003601f168201915b5050509183525050600482015460ff16151560208201526005909101546040909101528451859061ffff8616908110611f5d57611f5d613040565b60200260200101819052508280611f7390613056565b9350505b5080611f8281613056565b915050611d80565b6001600160a01b03918216600090815260056020908152604080832093909416825291909152205460ff1690565b60006001600160e01b031982166380ac58cd60e01b1480611fe957506001600160e01b03198216635b5e139f60e01b145b8061058657506301ffc9a760e01b6001600160e01b0319831614610586565b6000818152600260205260409020546001600160a01b03166120675760405162461bcd60e51b8152602060048201526018602482015277115490cdcc8c4e881a5b9d985b1a59081d1bdad95b88125160421b60448201526064016106b9565b50565b600081815260046020526040902080546001600160a01b0319166001600160a01b038416908117909155819061209f826114a0565b6001600160a01b03167f8c5be1e5ebec7d5bd14f71427d1e84f3dd0314c0f7b2291e5b200ac8c7c3b92560405160405180910390a45050565b6000806120e4836114a0565b9050806001600160a01b0316846001600160a01b0316148061210b575061210b8185611f8a565b806119c65750836001600160a01b03166121248461061e565b6001600160a01b031614949350505050565b826001600160a01b0316612149826114a0565b6001600160a01b03161461216f5760405162461bcd60e51b81526004016106b99061322b565b6001600160a01b0382166121d15760405162461bcd60e51b8152602060048201526024808201527f4552433732313a207472616e7366657220746f20746865207a65726f206164646044820152637265737360e01b60648201526084016106b9565b826001600160a01b03166121e4826114a0565b6001600160a01b03161461220a5760405162461bcd60e51b81526004016106b99061322b565b600081815260046020908152604080832080546001600160a01b03199081169091556001600160a01b0387811680865260038552838620805460001901905590871680865283862080546001019055868652600290945282852080549092168417909155905184937fddf252ad1be2c89b69c2b068fc378daa952ba7f163c4a11628f55a4df523b3ef91a4505050565b6001600160a01b0382166122f05760405162461bcd60e51b815260206004820181905260248201527f4552433732313a206d696e7420746f20746865207a65726f206164647265737360448201526064016106b9565b6000818152600260205260409020546001600160a01b0316156123555760405162461bcd60e51b815260206004820152601c60248201527f4552433732313a20746f6b656e20616c7265616479206d696e7465640000000060448201526064016106b9565b6000818152600260205260409020546001600160a01b0316156123ba5760405162461bcd60e51b815260206004820152601c60248201527f4552433732313a20746f6b656e20616c7265616479206d696e7465640000000060448201526064016106b9565b6001600160a01b038216600081815260036020908152604080832080546001019055848352600290915280822080546001600160a01b0319168417905551839291907fddf252ad1be2c89b69c2b068fc378daa952ba7f163c4a11628f55a4df523b3ef908290a45050565b6000828152600260205260409020546001600160a01b03166124a05760405162461bcd60e51b815260206004820152602e60248201527f45524337323155524953746f726167653a2055524920736574206f66206e6f6e60448201526d32bc34b9ba32b73a103a37b5b2b760911b60648201526084016106b9565b60008281526006602052604090206124b882826130c5565b506040518281527ff8e1a15aba9398e019f0b49df1a4fde98ee17ae345cb5f6b5e2c27f5033e8ce79060200160405180910390a15050565b6000806124fd8385613270565b905083811015610dd85760405162461bcd60e51b815260206004820152601b60248201527f536166654d6174683a206164646974696f6e206f766572666c6f77000000000060448201526064016106b9565b816001600160a01b0316836001600160a01b0316036125b05760405162461bcd60e51b815260206004820152601960248201527f4552433732313a20617070726f766520746f2063616c6c65720000000000000060448201526064016106b9565b6001600160a01b03838116600081815260056020908152604080832094871680845294825291829020805460ff191686151590811790915591519182527f17307eab39ab6107e8899845ad3d59bd9653f200f220920489ca2b5937696c319101611755565b612620848484612136565b61262c848484846126bb565b6115d65760405162461bcd60e51b81526004016106b990613283565b606061265382612008565b600061266a60408051602081019091526000815290565b9050600081511161268a5760405180602001604052806000815250610dd8565b80612694846127bc565b6040516020016126a59291906131fc565b6040516020818303038152906040529392505050565b60006001600160a01b0384163b156127b157604051630a85bd0160e11b81526001600160a01b0385169063150b7a02906126ff9033908990889088906004016132d5565b6020604051808303816000875af192505050801561273a575060408051601f3d908101601f1916820190925261273791810190613312565b60015b612797573d808015612768576040519150601f19603f3d011682016040523d82523d6000602084013e61276d565b606091505b50805160000361278f5760405162461bcd60e51b81526004016106b990613283565b805181602001fd5b6001600160e01b031916630a85bd0160e11b1490506119c6565b506001949350505050565b606060006127c98361284f565b600101905060008167ffffffffffffffff8111156127e9576127e9612d18565b6040519080825280601f01601f191660200182016040528015612813576020820181803683370190505b5090508181016020015b600019016f181899199a1a9b1b9c1cb0b131b232b360811b600a86061a8153600a850494508461281d57509392505050565b60008072184f03e93ff9f4daa797ed6e38ed64bf6a1f0160401b831061288e5772184f03e93ff9f4daa797ed6e38ed64bf6a1f0160401b830492506040015b6d04ee2d6d415b85acef810000000083106128ba576d04ee2d6d415b85acef8100000000830492506020015b662386f26fc1000083106128d857662386f26fc10000830492506010015b6305f5e10083106128f0576305f5e100830492506008015b612710831061290457612710830492506004015b60648310612916576064830492506002015b600a83106105865760010192915050565b60405180610120016040528060008152602001606081526020016060815260200160006001600160a01b03168152602001600081526020016000815260200160006001600160a01b03168152602001600081526020016000151581525090565b6001600160e01b03198116811461206757600080fd5b6000602082840312156129af57600080fd5b8135610dd881612987565b60005b838110156129d55781810151838201526020016129bd565b50506000910152565b600081518084526129f68160208601602086016129ba565b601f01601f19169290920160200192915050565b602081526000610dd860208301846129de565b600060208284031215612a2f57600080fd5b5035919050565b80356001600160a01b0381168114610aaa57600080fd5b60008060408385031215612a6057600080fd5b612a6983612a36565b946020939093013593505050565b600080600060608486031215612a8c57600080fd5b612a9584612a36565b9250612aa360208501612a36565b9150604084013590509250925092565b60006020808301818452808551808352604092508286019150828160051b87010184880160005b83811015612b5757603f19898403018552815160c08151855288820151818a870152612b08828701826129de565b915050878201518886015260608083015186830382880152612b2a83826129de565b60808581015115159089015260a09485015194909701939093525050509386019390860190600101612ada565b509098975050505050505050565b600060208284031215612b7757600080fd5b610dd882612a36565b60006020808301818452808551808352604092508286019150828160051b87010184880160005b83811015612b5757603f1989840301855281516101208151855288820151818a870152612bd6828701826129de565b9150508782015185820389870152612bee82826129de565b915050606080830151612c0b828801826001600160a01b03169052565b50506080828101519086015260a0808301519086015260c0808301516001600160a01b03169086015260e0808301519086015261010091820151151591909401529386019390860190600101612ba7565b86815260c060208201526000612c7560c08301886129de565b8660408401528281036060840152612c8d81876129de565b9415156080840152505060a00152949350505050565b60006101208b8352806020840152612cbd8184018c6129de565b90508281036040840152612cd1818b6129de565b6001600160a01b03998a1660608501526080840198909852505060a08101949094529190941660c083015260e0820193909352911515610100909201919091529392505050565b634e487b7160e01b600052604160045260246000fd5b600067ffffffffffffffff80841115612d4957612d49612d18565b604051601f8501601f19908116603f01168101908282118183101715612d7157612d71612d18565b81604052809350858152868686011115612d8a57600080fd5b858560208301376000602087830101525050509392505050565b600082601f830112612db557600080fd5b610dd883833560208501612d2e565b600080600060608486031215612dd957600080fd5b833567ffffffffffffffff80821115612df157600080fd5b612dfd87838801612da4565b94506020860135915080821115612e1357600080fd5b50612e2086828701612da4565b925050604084013590509250925092565b60008060008060808587031215612e4757600080fd5b843567ffffffffffffffff80821115612e5f57600080fd5b612e6b88838901612da4565b95506020870135915080821115612e8157600080fd5b50612e8e87828801612da4565b949794965050505060408301359260600135919050565b60008060408385031215612eb857600080fd5b612ec183612a36565b915060208301358015158114612ed657600080fd5b809150509250929050565b60008060008060808587031215612ef757600080fd5b612f0085612a36565b9350612f0e60208601612a36565b925060408501359150606085013567ffffffffffffffff811115612f3157600080fd5b8501601f81018713612f4257600080fd5b612f5187823560208401612d2e565b91505092959194509250565b60008060408385031215612f7057600080fd5b612f7983612a36565b9150612f8760208401612a36565b90509250929050565b600181811c90821680612fa457607f821691505b602082108103612fc457634e487b7160e01b600052602260045260246000fd5b50919050565b6020808252602d908201527f4552433732313a2063616c6c6572206973206e6f7420746f6b656e206f776e6560408201526c1c881bdc88185c1c1c9bdd9959609a1b606082015260800190565b634e487b7160e01b600052601160045260246000fd5b8181038181111561058657610586613017565b634e487b7160e01b600052603260045260246000fd5b600061ffff80831681810361306d5761306d613017565b6001019392505050565b601f82111561075a57600081815260208120601f850160051c8101602086101561309e5750805b601f850160051c820191505b818110156130bd578281556001016130aa565b505050505050565b815167ffffffffffffffff8111156130df576130df612d18565b6130f3816130ed8454612f90565b84613077565b602080601f83116001811461312857600084156131105750858301515b600019600386901b1c1916600185901b1785556130bd565b600085815260208120601f198616915b8281101561315757888601518255948401946001909101908401613138565b50858210156131755787850151600019600388901b60f8161c191681555b5050505050600190811b01905550565b60006001820161319757613197613017565b5060010190565b6060815260006131b160608301866129de565b60208301949094525060400152919050565b808202811582820484141761058657610586613017565b6000826131f757634e487b7160e01b600052601260045260246000fd5b500490565b6000835161320e8184602088016129ba565b8351908301906132228183602088016129ba565b01949350505050565b60208082526025908201527f4552433732313a207472616e736665722066726f6d20696e636f72726563742060408201526437bbb732b960d91b606082015260800190565b8082018082111561058657610586613017565b60208082526032908201527f4552433732313a207472616e7366657220746f206e6f6e20455243373231526560408201527131b2b4bb32b91034b6b83632b6b2b73a32b960711b606082015260800190565b6001600160a01b0385811682528416602082015260408101839052608060608201819052600090613308908301846129de565b9695505050505050565b60006020828403121561332457600080fd5b8151610dd88161298756fea2646970667358221220da6bd45ff11bc6a6c02d055701148e0860c13605c4f2caa8e10aff964ef1783864736f6c63430008140033",
  "devdoc": {
    "events": {
      "Approval(address,address,uint256)": {
        "details": "Emitted when `owner` enables `approved` to manage the `tokenId` token."
      },
      "ApprovalForAll(address,address,bool)": {
        "details": "Emitted when `owner` enables or disables (`approved`) `operator` to manage all of its assets."
      },
      "BatchMetadataUpdate(uint256,uint256)": {
        "details": "This event emits when the metadata of a range of tokens is changed. So that the third-party platforms such as NFT market could timely update the images and related attributes of the NFTs."
      },
      "MetadataUpdate(uint256)": {
        "details": "This event emits when the metadata of a token is changed. So that the third-party platforms such as NFT market could timely update the images and related attributes of the NFT."
      },
      "Transfer(address,address,uint256)": {
        "details": "Emitted when `tokenId` token is transferred from `from` to `to`."
      }
    },
    "kind": "dev",
    "methods": {
      "approve(address,uint256)": {
        "details": "See {IERC721-approve}."
      },
      "balanceOf(address)": {
        "details": "See {IERC721-balanceOf}."
      },
      "getApproved(uint256)": {
        "details": "See {IERC721-getApproved}."
      },
      "isApprovedForAll(address,address)": {
        "details": "See {IERC721-isApprovedForAll}."
      },
      "name()": {
        "details": "See {IERC721Metadata-name}."
      },
      "ownerOf(uint256)": {
        "details": "See {IERC721-ownerOf}."
      },
      "safeTransferFrom(address,address,uint256)": {
        "details": "See {IERC721-safeTransferFrom}."
      },
      "safeTransferFrom(address,address,uint256,bytes)": {
        "details": "See {IERC721-safeTransferFrom}."
      },
      "setApprovalForAll(address,bool)": {
        "details": "See {IERC721-setApprovalForAll}."
      },
      "supportsInterface(bytes4)": {
        "details": "See {IERC165-supportsInterface}"
      },
      "symbol()": {
        "details": "See {IERC721Metadata-symbol}."
      },
      "tokenURI(uint256)": {
        "details": "See {IERC721Metadata-tokenURI}."
      },
      "transferFrom(address,address,uint256)": {
        "details": "See {IERC721-transferFrom}."
      }
    },
    "version": 1
  },
  "userdoc": {
    "kind": "user",
    "methods": {},
    "version": 1
  },
  "storageLayout": {
    "storage": [
      {
        "astId": 244,
        "contract": "contracts/OlyCrypto.sol:OlyCrypto",
        "label": "_name",
        "offset": 0,
        "slot": "0",
        "type": "t_string_storage"
      },
      {
        "astId": 246,
        "contract": "contracts/OlyCrypto.sol:OlyCrypto",
        "label": "_symbol",
        "offset": 0,
        "slot": "1",
        "type": "t_string_storage"
      },
      {
        "astId": 250,
        "contract": "contracts/OlyCrypto.sol:OlyCrypto",
        "label": "_owners",
        "offset": 0,
        "slot": "2",
        "type": "t_mapping(t_uint256,t_address)"
      },
      {
        "astId": 254,
        "contract": "contracts/OlyCrypto.sol:OlyCrypto",
        "label": "_balances",
        "offset": 0,
        "slot": "3",
        "type": "t_mapping(t_address,t_uint256)"
      },
      {
        "astId": 258,
        "contract": "contracts/OlyCrypto.sol:OlyCrypto",
        "label": "_tokenApprovals",
        "offset": 0,
        "slot": "4",
        "type": "t_mapping(t_uint256,t_address)"
      },
      {
        "astId": 264,
        "contract": "contracts/OlyCrypto.sol:OlyCrypto",
        "label": "_operatorApprovals",
        "offset": 0,
        "slot": "5",
        "type": "t_mapping(t_address,t_mapping(t_address,t_bool))"
      },
      {
        "astId": 1295,
        "contract": "contracts/OlyCrypto.sol:OlyCrypto",
        "label": "_tokenURIs",
        "offset": 0,
        "slot": "6",
        "type": "t_mapping(t_uint256,t_string_storage)"
      },
      {
        "astId": 3072,
        "contract": "contracts/OlyCrypto.sol:OlyCrypto",
        "label": "owner",
        "offset": 0,
        "slot": "7",
        "type": "t_address"
      },
      {
        "astId": 3074,
        "contract": "contracts/OlyCrypto.sol:OlyCrypto",
        "label": "totalSupply",
        "offset": 0,
        "slot": "8",
        "type": "t_uint256"
      },
      {
        "astId": 3076,
        "contract": "contracts/OlyCrypto.sol:OlyCrypto",
        "label": "totalToken",
        "offset": 0,
        "slot": "9",
        "type": "t_uint256"
      },
      {
        "astId": 3078,
        "contract": "contracts/OlyCrypto.sol:OlyCrypto",
        "label": "totalAuction",
        "offset": 0,
        "slot": "10",
        "type": "t_uint256"
      },
      {
        "astId": 3121,
        "contract": "contracts/OlyCrypto.sol:OlyCrypto",
        "label": "auctions",
        "offset": 0,
        "slot": "11",
        "type": "t_mapping(t_uint256,t_struct(AuctionItem)3103_storage)"
      },
      {
        "astId": 3126,
        "contract": "contracts/OlyCrypto.sol:OlyCrypto",
        "label": "tokensCreated",
        "offset": 0,
        "slot": "12",
        "type": "t_mapping(t_uint256,t_struct(Token)3116_storage)"
      }
    ],
    "types": {
      "t_address": {
        "encoding": "inplace",
        "label": "address",
        "numberOfBytes": "20"
      },
      "t_bool": {
        "encoding": "inplace",
        "label": "bool",
        "numberOfBytes": "1"
      },
      "t_mapping(t_address,t_bool)": {
        "encoding": "mapping",
        "key": "t_address",
        "label": "mapping(address => bool)",
        "numberOfBytes": "32",
        "value": "t_bool"
      },
      "t_mapping(t_address,t_mapping(t_address,t_bool))": {
        "encoding": "mapping",
        "key": "t_address",
        "label": "mapping(address => mapping(address => bool))",
        "numberOfBytes": "32",
        "value": "t_mapping(t_address,t_bool)"
      },
      "t_mapping(t_address,t_uint256)": {
        "encoding": "mapping",
        "key": "t_address",
        "label": "mapping(address => uint256)",
        "numberOfBytes": "32",
        "value": "t_uint256"
      },
      "t_mapping(t_uint256,t_address)": {
        "encoding": "mapping",
        "key": "t_uint256",
        "label": "mapping(uint256 => address)",
        "numberOfBytes": "32",
        "value": "t_address"
      },
      "t_mapping(t_uint256,t_string_storage)": {
        "encoding": "mapping",
        "key": "t_uint256",
        "label": "mapping(uint256 => string)",
        "numberOfBytes": "32",
        "value": "t_string_storage"
      },
      "t_mapping(t_uint256,t_struct(AuctionItem)3103_storage)": {
        "encoding": "mapping",
        "key": "t_uint256",
        "label": "mapping(uint256 => struct OlyCrypto.AuctionItem)",
        "numberOfBytes": "32",
        "value": "t_struct(AuctionItem)3103_storage"
      },
      "t_mapping(t_uint256,t_struct(Token)3116_storage)": {
        "encoding": "mapping",
        "key": "t_uint256",
        "label": "mapping(uint256 => struct OlyCrypto.Token)",
        "numberOfBytes": "32",
        "value": "t_struct(Token)3116_storage"
      },
      "t_string_storage": {
        "encoding": "bytes",
        "label": "string",
        "numberOfBytes": "32"
      },
      "t_struct(AuctionItem)3103_storage": {
        "encoding": "inplace",
        "label": "struct OlyCrypto.AuctionItem",
        "members": [
          {
            "astId": 3086,
            "contract": "contracts/OlyCrypto.sol:OlyCrypto",
            "label": "itemId",
            "offset": 0,
            "slot": "0",
            "type": "t_uint256"
          },
          {
            "astId": 3088,
            "contract": "contracts/OlyCrypto.sol:OlyCrypto",
            "label": "name",
            "offset": 0,
            "slot": "1",
            "type": "t_string_storage"
          },
          {
            "astId": 3090,
            "contract": "contracts/OlyCrypto.sol:OlyCrypto",
            "label": "metadata",
            "offset": 0,
            "slot": "2",
            "type": "t_string_storage"
          },
          {
            "astId": 3092,
            "contract": "contracts/OlyCrypto.sol:OlyCrypto",
            "label": "owner",
            "offset": 0,
            "slot": "3",
            "type": "t_address"
          },
          {
            "astId": 3094,
            "contract": "contracts/OlyCrypto.sol:OlyCrypto",
            "label": "startPrice",
            "offset": 0,
            "slot": "4",
            "type": "t_uint256"
          },
          {
            "astId": 3096,
            "contract": "contracts/OlyCrypto.sol:OlyCrypto",
            "label": "highestBid",
            "offset": 0,
            "slot": "5",
            "type": "t_uint256"
          },
          {
            "astId": 3098,
            "contract": "contracts/OlyCrypto.sol:OlyCrypto",
            "label": "highestBidder",
            "offset": 0,
            "slot": "6",
            "type": "t_address"
          },
          {
            "astId": 3100,
            "contract": "contracts/OlyCrypto.sol:OlyCrypto",
            "label": "endTime",
            "offset": 0,
            "slot": "7",
            "type": "t_uint256"
          },
          {
            "astId": 3102,
            "contract": "contracts/OlyCrypto.sol:OlyCrypto",
            "label": "ended",
            "offset": 0,
            "slot": "8",
            "type": "t_bool"
          }
        ],
        "numberOfBytes": "288"
      },
      "t_struct(Token)3116_storage": {
        "encoding": "inplace",
        "label": "struct OlyCrypto.Token",
        "members": [
          {
            "astId": 3105,
            "contract": "contracts/OlyCrypto.sol:OlyCrypto",
            "label": "tokenId",
            "offset": 0,
            "slot": "0",
            "type": "t_uint256"
          },
          {
            "astId": 3107,
            "contract": "contracts/OlyCrypto.sol:OlyCrypto",
            "label": "name",
            "offset": 0,
            "slot": "1",
            "type": "t_string_storage"
          },
          {
            "astId": 3109,
            "contract": "contracts/OlyCrypto.sol:OlyCrypto",
            "label": "initValue",
            "offset": 0,
            "slot": "2",
            "type": "t_uint256"
          },
          {
            "astId": 3111,
            "contract": "contracts/OlyCrypto.sol:OlyCrypto",
            "label": "metadata",
            "offset": 0,
            "slot": "3",
            "type": "t_string_storage"
          },
          {
            "astId": 3113,
            "contract": "contracts/OlyCrypto.sol:OlyCrypto",
            "label": "available",
            "offset": 0,
            "slot": "4",
            "type": "t_bool"
          },
          {
            "astId": 3115,
            "contract": "contracts/OlyCrypto.sol:OlyCrypto",
            "label": "dateCheckIn",
            "offset": 0,
            "slot": "5",
            "type": "t_uint256"
          }
        ],
        "numberOfBytes": "192"
      },
      "t_uint256": {
        "encoding": "inplace",
        "label": "uint256",
        "numberOfBytes": "32"
      }
    }
  }
}